:100000000C9457000C9474000C9474000C947400BD
:100010000C9474000C9474000C9474000C94740090
:100020000C9474000C9474000C9474000C94740080
:100030000C9474000C9474000C9474000C94740070
:100040000C94E5000C9474000C9474000C947400EF
:100050000C9474000C9474000C9474000C94740050
:100060000C9474000C94740000000008000201005D
:100070000003040700000000000000000102040863
:100080001020408001020408102001020408102002
:10009000040404040404040402020202020203032E
:1000A0000303030300000000250028002B00112497
:1000B0001FBECFEFD8E0DEBFCDBF11E0A0E0B1E0C2
:1000C000EEE4F4E002C005900D92AA31B107D9F731
:1000D00021E0AAE1B1E001C01D92A332B207E1F72D
:1000E0000E94D6000C9425020C94000061E0882345
:1000F00041F08DE00E94F40164EF71E080E090E057
:1001000007C08DE00E94F40168EC70E080E090E0B0
:100110000E94540160E08DE00E94F40160E971E00A
:1001200080E090E00C945401DF92EF92FF920F93E5
:100130001F93CF93DF938C017C0182E0E80EF11CCA
:10014000D801ED918D01F0E0E154FF4FC0818C2F7B
:100150008870BC2FB470DB2EDC2FD270C4FF03C0BC
:100160000E94760002C0882321F08D2D0E94760027
:1001700002C0BB2321F08D2F0E94760002C0DD2338
:1001800021F08C2F81700E9476000E151F05C1F69C
:10019000DF91CF911F910F91FF90EF90DF90089525
:1001A000089585E191E00C94940008950E949001D7
:1001B0000E94D5000E94D000C0E0D0E00E94D10093
:1001C0002097E1F30E940000F9CF1F920F920FB623
:1001D0000F9211242F933F938F939F93AF93BF93CD
:1001E00080911B0190911C01A0911D01B0911E01F5
:1001F00030911A0123E0230F2D3720F40196A11D21
:10020000B11D05C026E8230F0296A11DB11D209344
:100210001A0180931B0190931C01A0931D01B093C0
:100220001E0180911F0190912001A0912101B091A8
:1002300022010196A11DB11D80931F019093200101
:10024000A0932101B0932201BF91AF919F918F9113
:100250003F912F910F900FBE0F901F9018953FB7B1
:10026000F89480911F0190912001A0912101B091FB
:10027000220126B5A89B05C02F3F19F00196A11DAC
:10028000B11D3FBFBA2FA92F982F8827820F911D2C
:10029000A11DB11DBC01CD0142E0660F771F881F73
:1002A000991F4A95D1F708958F929F92AF92BF926E
:1002B000CF92DF92EF92FF926B017C010E942F019F
:1002C0004B015C01C114D104E104F10401F10E946D
:1002D00024020E942F01DC01CB0188199909AA0987
:1002E000BB09883E9340A105B10560F321E0C21A25
:1002F000D108E108F10888EE880E83E0981EA11C61
:10030000B11CC114D104E104F10419F7DBCFFF9053
:10031000EF90DF90CF90BF90AF909F908F90089517
:10032000789484B5826084BD84B5816084BD85B5D0
:10033000826085BD85B5816085BDEEE6F0E0808197
:1003400081608083E1E8F0E01082808182608083B8
:10035000808181608083E0E8F0E08081816080833B
:10036000E1EBF0E0808184608083E0EBF0E080816D
:1003700081608083EAE7F0E080818460808380810F
:1003800082608083808181608083808180688083B7
:100390001092C1000895833081F028F4813099F0E3
:1003A0008230A1F008958730A9F08830B9F0843008
:1003B000D1F4809180008F7D03C0809180008F7781
:1003C00080938000089584B58F7702C084B58F7DB7
:1003D00084BD08958091B0008F7703C08091B000F4
:1003E0008F7D8093B00008951F93CF93DF93282FC4
:1003F00030E0F901E859FF4F8491F901E458FF4FCB
:10040000D491F901E057FF4FC491CC23C9F0162FC6
:1004100081110E94CB01EC2FF0E0EE0FFF1FEC5595
:10042000FF4FA591B4918FB7F894111105C09C911D
:10043000ED2FE095E92302C0EC91ED2BEC938FBFFB
:0E044000DF91CF911F9108950895F894FFCF9A
:10044E0025383A1622322E3F24372D3427262F36C2
:0A045E003D2A282331534F530000BC
:00000001FF
